{
  "contractName": "LandContract",
  "abi": [
    {
      "inputs": [],
      "payable": false,
      "stateMutability": "nonpayable",
      "type": "constructor"
    },
    {
      "constant": true,
      "inputs": [],
      "name": "landCount",
      "outputs": [
        {
          "internalType": "uint256",
          "name": "",
          "type": "uint256"
        }
      ],
      "payable": false,
      "stateMutability": "view",
      "type": "function"
    },
    {
      "constant": true,
      "inputs": [],
      "name": "getAllLands",
      "outputs": [
        {
          "components": [
            {
              "internalType": "uint256",
              "name": "landNumber",
              "type": "uint256"
            },
            {
              "internalType": "uint256",
              "name": "area",
              "type": "uint256"
            },
            {
              "internalType": "string",
              "name": "addr",
              "type": "string"
            },
            {
              "internalType": "string",
              "name": "description",
              "type": "string"
            },
            {
              "internalType": "address",
              "name": "owner",
              "type": "address"
            },
            {
              "internalType": "bool",
              "name": "verificationStatus",
              "type": "bool"
            },
            {
              "internalType": "uint256",
              "name": "price",
              "type": "uint256"
            }
          ],
          "internalType": "struct LandContract.LandStruct[]",
          "name": "",
          "type": "tuple[]"
        }
      ],
      "payable": false,
      "stateMutability": "view",
      "type": "function"
    },
    {
      "constant": false,
      "inputs": [
        {
          "internalType": "uint256",
          "name": "area",
          "type": "uint256"
        },
        {
          "internalType": "string",
          "name": "description",
          "type": "string"
        },
        {
          "internalType": "string",
          "name": "addr",
          "type": "string"
        },
        {
          "internalType": "uint256",
          "name": "price",
          "type": "uint256"
        }
      ],
      "name": "createLand",
      "outputs": [],
      "payable": false,
      "stateMutability": "nonpayable",
      "type": "function"
    },
    {
      "constant": false,
      "inputs": [
        {
          "internalType": "uint256",
          "name": "_id",
          "type": "uint256"
        }
      ],
      "name": "verifyLand",
      "outputs": [],
      "payable": false,
      "stateMutability": "nonpayable",
      "type": "function"
    },
    {
      "constant": true,
      "inputs": [
        {
          "internalType": "uint256",
          "name": "_id",
          "type": "uint256"
        }
      ],
      "name": "getLand",
      "outputs": [
        {
          "components": [
            {
              "internalType": "uint256",
              "name": "landNumber",
              "type": "uint256"
            },
            {
              "internalType": "uint256",
              "name": "area",
              "type": "uint256"
            },
            {
              "internalType": "string",
              "name": "addr",
              "type": "string"
            },
            {
              "internalType": "string",
              "name": "description",
              "type": "string"
            },
            {
              "internalType": "address",
              "name": "owner",
              "type": "address"
            },
            {
              "internalType": "bool",
              "name": "verificationStatus",
              "type": "bool"
            },
            {
              "internalType": "uint256",
              "name": "price",
              "type": "uint256"
            }
          ],
          "internalType": "struct LandContract.LandStruct",
          "name": "",
          "type": "tuple"
        }
      ],
      "payable": false,
      "stateMutability": "view",
      "type": "function"
    },
    {
      "constant": false,
      "inputs": [
        {
          "internalType": "uint256",
          "name": "_id",
          "type": "uint256"
        },
        {
          "internalType": "uint256",
          "name": "area",
          "type": "uint256"
        },
        {
          "internalType": "string",
          "name": "description",
          "type": "string"
        },
        {
          "internalType": "string",
          "name": "addr",
          "type": "string"
        },
        {
          "internalType": "uint256",
          "name": "price",
          "type": "uint256"
        }
      ],
      "name": "modifyLand",
      "outputs": [],
      "payable": false,
      "stateMutability": "nonpayable",
      "type": "function"
    },
    {
      "constant": false,
      "inputs": [
        {
          "internalType": "uint256",
          "name": "_id",
          "type": "uint256"
        },
        {
          "internalType": "address",
          "name": "_newOwner",
          "type": "address"
        }
      ],
      "name": "transferLand",
      "outputs": [],
      "payable": false,
      "stateMutability": "nonpayable",
      "type": "function"
    }
  ],
  "bytecode": "0x60806040526000805534801561001457600080fd5b50610066600b604051806040016040528060078152602001664d6f726f63636f60c81b81525060405180608001604052806045815260200162000f4b60459139620186a06001600160e01b0361006b16565b610252565b6000805460019081018083556040805160e08101825291825260208083018981529183018881526060840188905233608085015260a0840186905260c08401879052845480860180875595909652835160069096027fb10e2d527612073b26eecdfd717e6a320cf44b4afac2b0732d9fcbe2b7fa0cf6810196875592517fb10e2d527612073b26eecdfd717e6a320cf44b4afac2b0732d9fcbe2b7fa0cf784015551805194959394610144937fb10e2d527612073b26eecdfd717e6a320cf44b4afac2b0732d9fcbe2b7fa0cf8019291909101906101b7565b50606082015180516101609160038401916020909101906101b7565b50608082015160048201805460a08501511515600160a01b0260ff60a01b196001600160a01b039094166001600160a01b0319909216919091179290921691909117905560c0909101516005909101555050505050565b828054600181600116156101000203166002900490600052602060002090601f016020900481019282601f106101f857805160ff1916838001178555610225565b82800160010185558215610225579182015b8281111561022557825182559160200191906001019061020a565b50610231929150610235565b5090565b61024f91905b80821115610231576000815560010161023b565b90565b610ce980620002626000396000f3fe608060405234801561001057600080fd5b506004361061007d5760003560e01c8063c798ff7d1161005b578063c798ff7d146100c8578063d7bce658146100db578063f02dd53f146100f0578063f9c43bdf146101105761007d565b8063289c64251461008257806364f88b7114610097578063b7b6e543146100aa575b600080fd5b6100956100903660046108e6565b610123565b005b6100956100a5366004610977565b61026f565b6100b2610322565b6040516100bf9190610b92565b60405180910390f35b6100956100d63660046108ac565b610502565b6100e3610549565b6040516100bf9190610bb4565b6101036100fe366004610886565b61054f565b6040516100bf9190610ba3565b61009561011e366004610886565b6106fd565b6000805460019081018083556040805160e08101825291825260208083018981529183018881526060840188905233608085015260a0840186905260c08401879052845480860180875595909652835160069096027fb10e2d527612073b26eecdfd717e6a320cf44b4afac2b0732d9fcbe2b7fa0cf6810196875592517fb10e2d527612073b26eecdfd717e6a320cf44b4afac2b0732d9fcbe2b7fa0cf7840155518051949593946101fc937fb10e2d527612073b26eecdfd717e6a320cf44b4afac2b0732d9fcbe2b7fa0cf801929190910190610736565b5060608201518051610218916003840191602090910190610736565b50608082015160048201805460a08501511515600160a01b0260ff60a01b196001600160a01b039094166001600160a01b0319909216919091179290921691909117905560c0909101516005909101555050505050565b836001868154811061027d57fe5b90600052602060002090600602016001018190555082600186815481106102a057fe5b906000526020600020906006020160030190805190602001906102c4929190610736565b5081600186815481106102d357fe5b906000526020600020906006020160020190805190602001906102f7929190610736565b50806001868154811061030657fe5b9060005260206000209060060201600501819055505050505050565b60606001805480602002602001604051908101604052809291908181526020016000905b828210156104f857838290600052602060002090600602016040518060e00160405290816000820154815260200160018201548152602001600282018054600181600116156101000203166002900480601f0160208091040260200160405190810160405280929190818152602001828054600181600116156101000203166002900480156104165780601f106103eb57610100808354040283529160200191610416565b820191906000526020600020905b8154815290600101906020018083116103f957829003601f168201915b505050918352505060038201805460408051602060026001851615610100026000190190941693909304601f81018490048402820184019092528181529382019392918301828280156104aa5780601f1061047f576101008083540402835291602001916104aa565b820191906000526020600020905b81548152906001019060200180831161048d57829003601f168201915b505050918352505060048201546001600160a01b038116602080840191909152600160a01b90910460ff16151560408301526005909201546060909101529082526001929092019101610346565b5050505090505b90565b806001838154811061051057fe5b906000526020600020906006020160040160006101000a8154816001600160a01b0302191690836001600160a01b031602179055505050565b60005481565b6105576107b4565b6001828154811061056457fe5b90600052602060002090600602016040518060e00160405290816000820154815260200160018201548152602001600282018054600181600116156101000203166002900480601f01602080910402602001604051908101604052809291908181526020018280546001816001161561010002031660029004801561062a5780601f106105ff5761010080835404028352916020019161062a565b820191906000526020600020905b81548152906001019060200180831161060d57829003601f168201915b505050918352505060038201805460408051602060026001851615610100026000190190941693909304601f81018490048402820184019092528181529382019392918301828280156106be5780601f10610693576101008083540402835291602001916106be565b820191906000526020600020905b8154815290600101906020018083116106a157829003601f168201915b505050918352505060048201546001600160a01b0381166020830152600160a01b900460ff161515604082015260059091015460609091015292915050565b600180828154811061070b57fe5b906000526020600020906006020160040160146101000a81548160ff02191690831515021790555050565b828054600181600116156101000203166002900490600052602060002090601f016020900481019282601f1061077757805160ff19168380011785556107a4565b828001600101855582156107a4579182015b828111156107a4578251825591602001919060010190610789565b506107b09291506107fc565b5090565b6040518060e001604052806000815260200160008152602001606081526020016060815260200160006001600160a01b03168152602001600015158152602001600081525090565b6104ff91905b808211156107b05760008155600101610802565b803561082181610c86565b92915050565b600082601f83011261083857600080fd5b813561084b61084682610be9565b610bc2565b9150808252602083016020830185838301111561086757600080fd5b610872838284610c40565b50505092915050565b803561082181610c9d565b60006020828403121561089857600080fd5b60006108a4848461087b565b949350505050565b600080604083850312156108bf57600080fd5b60006108cb858561087b565b92505060206108dc85828601610816565b9150509250929050565b600080600080608085870312156108fc57600080fd5b6000610908878761087b565b945050602085013567ffffffffffffffff81111561092557600080fd5b61093187828801610827565b935050604085013567ffffffffffffffff81111561094e57600080fd5b61095a87828801610827565b925050606061096b8782880161087b565b91505092959194509250565b600080600080600060a0868803121561098f57600080fd5b600061099b888861087b565b95505060206109ac8882890161087b565b945050604086013567ffffffffffffffff8111156109c957600080fd5b6109d588828901610827565b935050606086013567ffffffffffffffff8111156109f257600080fd5b6109fe88828901610827565b9250506080610a0f8882890161087b565b9150509295509295909350565b6000610a288383610aed565b9392505050565b610a3881610c24565b82525050565b6000610a4982610c17565b610a538185610c1b565b935083602082028501610a6585610c11565b8060005b85811015610a9f5784840389528151610a828582610a1c565b9450610a8d83610c11565b60209a909a0199925050600101610a69565b5091979650505050505050565b610a3881610c2f565b6000610ac082610c17565b610aca8185610c1b565b9350610ada818560208601610c4c565b610ae381610c7c565b9093019392505050565b805160009060e0840190610b018582610b89565b506020830151610b146020860182610b89565b5060408301518482036040860152610b2c8282610ab5565b91505060608301518482036060860152610b468282610ab5565b9150506080830151610b5b6080860182610a2f565b5060a0830151610b6e60a0860182610aac565b5060c0830151610b8160c0860182610b89565b509392505050565b610a38816104ff565b60208082528101610a288184610a3e565b60208082528101610a288184610aed565b602081016108218284610b89565b60405181810167ffffffffffffffff81118282101715610be157600080fd5b604052919050565b600067ffffffffffffffff821115610c0057600080fd5b506020601f91909101601f19160190565b60200190565b5190565b90815260200190565b600061082182610c34565b151590565b6001600160a01b031690565b82818337506000910152565b60005b83811015610c67578181015183820152602001610c4f565b83811115610c76576000848401525b50505050565b601f01601f191690565b610c8f81610c24565b8114610c9a57600080fd5b50565b610c8f816104ff56fea365627a7a723158204fb0b03fbf85dc1dea893680dd9f8d16ab1c606082ef14d8593d131941bf46e96c6578706572696d656e74616cf564736f6c63430005100040454e534941532c204176656e7565204d6f68616d656442656e20416264656c6c61682052656772616775692c4d6164696e617420416c20497266616e652c2052616261742e",
  "source": "// SPDX-License-Identifier: UNLICENSED\r\npragma solidity >=0.4.22;\r\npragma experimental ABIEncoderV2;\r\n\r\ncontract LandContract {\r\n\tuint public landCount = 0;\r\n\tstruct LandStruct {\r\n\t\tuint landNumber;\r\n \t\tuint area;\r\n \t\tstring addr;\r\n\t\tstring description;\r\n \t\taddress owner;\r\n \t\tbool verificationStatus;\r\n \t\tuint price;\r\n\t}\r\n\tLandStruct[] lands;\r\n\r\n\tconstructor () public {\r\n\t\tcreateLand(11, \"Morocco\", \"ENSIAS, Avenue MohamedBen Abdellah Regragui,Madinat Al Irfane, Rabat.\", 100000);\r\n\t}\r\n\r\n\tfunction getAllLands() public view returns (LandStruct[] memory) {\r\n\t\treturn lands;\r\n\t}\r\n\r\n\tfunction createLand(uint area, string memory description, string memory addr, uint price) public {\r\n\t\tlandCount++;\r\n\t\tlands.push(LandStruct(landCount, area, description, addr, msg.sender, false, price));\r\n\t}\r\n\r\n\tfunction verifyLand(uint _id) public {\r\n\t\tlands[_id].verificationStatus = true;\r\n\t}\r\n \r\n\tfunction getLand(uint _id) public view returns (LandStruct memory) {\r\n\t\treturn lands[_id];\r\n\t}\r\n\r\n\tfunction modifyLand(uint _id, uint area, string memory description, string memory addr, uint price) public {\r\n\t\tlands[_id].area = area;\r\n\t\tlands[_id].description = description;\r\n\t\tlands[_id].addr = addr;\r\n\t\tlands[_id].price = price;\r\n\t}\r\n\r\n\tfunction transferLand(uint _id, address _newOwner) public {\r\n\t\tlands[_id].owner = _newOwner;\r\n\t}\r\n\r\n}\r\n",
  "sourcePath": "/mnt/d/Land Registry/land-registery-blockchain/contracts/LandContract.sol",
  "compiler": {
    "name": "solc",
    "version": "0.5.16+commit.9c3226ce.Emscripten.clang"
  },
  "schemaVersion": "3.4.7",
  "updatedAt": "2022-06-15T12:08:39.592Z",
  "networkType": "ethereum",
  "devdoc": {
    "methods": {}
  },
  "userdoc": {
    "methods": {}
  }
}